:020000040800F2
:10000000481B0020C91A0008F96D0008FB6D0008A4
:10001000FF6D0008036E0008076E00080000000076
:100020000000000000000000000000000B6E00084F
:100030000D6E0008000000000F6E0008116E000831
:10004000E31A0008E31A0008E31A0008E31A00089C
:10005000E31A0008E31A0008E31A0008E31A00088C
:10006000E31A0008E31A0008E31A0008E31A00087C
:10007000E31A0008E31A0008E31A0008E31A00086C
:10008000E31A0008E31A0008E31A0008E31A00085C
:10009000E31A0008E31A0008E31A0008E31A00084C
:1000A000E31A000845AE00085FBA0008E31A00082A
:1000B000E31A0008E31A0008FFC10008E31A000869
:1000C000E31A0008E31A0008E31A0008E31A00081C
:1000D000E31A0008E9C00008E31A0008E31A000860
:1000E000E31A0008E31A0008E31A000875B90008CB
:1000F00005B300089FB90008E31A0008E31A0008D6
:10010000E31A0008136E0008E31A0008E31A000857
:10011000E31A0008E31A0008E31A0008C1B0000857
:10012000E31A0008E31A0008E31A0008E31A0008BB
:10013000E31A0008E31A0008E31A0008E31A0008AB
:10014000E31A0008E31A0008E31A0008E31A00089B
:10015000E31A0008E31A0008E31A0008E31A00088B
:10016000E31A0008E31A0008E31A0008E31A00087B
:10017000E31A0008E31A0008E31A0008E31A00086B
:10018000E31A0008E31A000800F002F800F07BF818
:100190000AA090E8000C82448344AAF10107DA45E2
:1001A00001D100F070F8AFF2090EBAE80F0013F0B9
:1001B000010F18BFFB1A43F0010318475C980100B8
:1001C0007C9801000A444FF0000C10F8013B13F03A
:1001D000070408BF10F8014B1D1108BF10F8015BA0
:1001E000641E05D010F8016B641E01F8016BF9D193
:1001F00013F0080F1EBF10F8014BAD1C0C1B09D1EA
:100200006D1E58BF01F801CBFAD505E014F8016B5B
:1002100001F8016B6D1EF9D59142D6D370470000ED
:100220000023002400250026103A28BF78C1FBD8FF
:10023000520728BF30C148BF0B607047692911F0D1
:10024000FB82642911F0F882752911F0F582782972
:1002500011F02E83732911F00A85002070471FB515
:1002600013F07CFC12F050F804000020002113F081
:1002700083F8401C60600020002113F067F8E06004
:100280001FBD10B510BD11F088FD1146FFF7E7FF47
:1002900001F09CF812F02AF803B4FFF7F2FF03BC58
:1002A00006F020FD2DE9F04F03460C461546B3F548
:1002B000FA6F03DB40F634094B4501DD40F2DC7395
:1002C0000CB10C2C00DD01240DB11F2D00DD01252A
:1002D000A3F5C861671EA5F1010C01F163094FF098
:1002E000640AB9FBFAFA40F26D1901FB09F901F150
:1002F000030B09EB9B09A9EB0A0A01F28F194FF4D2
:10030000C87BB9FBFBF90AEB0902002605E0DFF820
:10031000349C59F826904A44761CBE42F7D3012FEC
:1003200017D901F00309B9F1000F08D14FF06409A2
:10033000B1FBF9FA09FB1A19B9F1000F08D14FF412
:10034000C879B1FBF9FA09FB1A19B9F1000F00D10C
:10035000521C6244A2F14F0042F61579B0FBF9F845
:10036000B0FBF9FA09FB1A0040F2B559B0FBF9FAF3
:1003700009FB1A00B0F5B77F07D3A0F1010940F2DD
:100380006D1AB9FBFAFB0AFB1B90BDE8F08F2DE953
:10039000FF4F82B01C46DDE90F56B4F5FA6F03DB60
:1003A00040F6340A544501DD40F2DC740DB10C2DE9
:1003B00000DD01250EB11F2E00DD0126A4F5C86267
:1003C0006F1EA6F1010802F1630A4FF0640BBAFB3D
:1003D000FBFA40F26D1B02FB0BFB02F1030E0BEB71
:1003E0009E0BABEB0A0B02F28F1A4FF4C87EBAFBDE
:1003F000FEFA0BEB0A03002105E0DFF848AB5AF8E0
:1004000021A05344491CB942F7D3012F17D902F058
:10041000030ABAF1000F08D14FF0640AB2FBFAFBED
:100420000AFB1B2ABAF1000F08D14FF4C87AB2FBBD
:10043000FAFB0AFB1B2ABAF1000F00D15B1C4344F4
:10044000A3F14F0042F6157AB0FBFAFACDF800A0FE
:1004500042F6157AB0FBFAFB0AFB1B0040F2B55AD4
:10046000B0FBFAFBDDF800A00AEB4A1A0AF2D33A15
:100470004FF0040E0EFB0BAC40F2B55AB0FBFAFB8A
:100480000AFB1B00B0F5B77F0CD3A0F1010A40F2C4
:100490006D1BBAFBFBFAD444A0F1010ABAFBFBFEC8
:1004A0000BFB1EA0002106E0DFF89CAA5AF821A051
:1004B000A0EB0A00491C0B2905D2DFF88CAA5AF8D8
:1004C00021A08245F0D901F1010900F1010ACDF81E
:1004D00004A0DDF808A0CAF800C0DDF80CA0CAF836
:1004E0000090DDF810B0DDF804A0CBF800A006B055
:1004F000BDE8F08F2DE9FF4F82B006460F469446C7
:10050000DDF814A0AAF2D333DDF83CA0AAF1010A69
:10051000CDF804A0DDF840A0AAF1010ACDF800A0B2
:100520004FF0210AB3FBFAFA40F26D1B03FB0BFB01
:100530000BEBCA0A4FF0210BB3FBFBFE0BFB1E3B80
:100540000BF1030B0AEB9B04002105E0DFF8F8A98F
:100550005AF821A05444491CDDF804A05145F5D3B4
:10056000DDF800A0544404F14F00DFF8E0A9B0FB2F
:10057000FAFA4FF4C87B0AFB0BFA0AF5C862DFF8F7
:10058000CCA9B0FBFAFB0AFB1B00012548F6AD6ABB
:10059000504514D3401E48F6AC6AB0FBFAFA4FF04F
:1005A000640B0BFB0A2248F6AC6AB0FBFAFB0AFBB1
:1005B0001B00B0F5B67F01D9401C00E0002540F2D9
:1005C000B55AB0FBFAFA4FF0040B0BFB0A2240F2CB
:1005D000B55AB0FBFAFB0AFB1B00B0F5B77F0CD392
:1005E0000025401E40F26D1AB0FBFAFA524440F268
:1005F0006D1AB0FBFAFB0AFB1B0000210EE001297B
:1006000002D10DB18A4601E04FF0000ADFF834B99B
:100610005BF821B0DA44A0EB0A00491C012902D1A1
:100620000DB18A4601E04FF0000ADFF818B95BF817
:1006300021B0DA448245E2D901F1010900F1010853
:100640003260C7F80090CCF8008006B0BDE8F08FAB
:100650002DE9F04303460C46B3F5FA6F03DB40F691
:10066000340C634501DD40F2DC730CB10C2C00DD71
:1006700001240AB11F2A00DD0122A3F5C861661E0C
:10068000571E01F1630C4FF06408BCFBF8F940F20F
:100690006D1C01FB0CFC01F103080CEB980CACEB9E
:1006A000090801F28F1C4FF4C879BCFBF9FC08EB78
:1006B0000C00002505E0DFF88CC85CF825C060441C
:1006C0006D1CB542F7D3012E17D901F0030CBCF114
:1006D000000F08D14FF0640CB1FBFCF80CFB181CA8
:1006E000BCF1000F08D14FF4C87CB1FBFCF80CFB47
:1006F000181CBCF1000F00D1401C3844DFF84CC876
:10070000B0FBFCFC4FF4C8780CFB08FC0CF5C8618E
:10071000DFF838C8B0FBFCF80CFB180048F6AD6CED
:10072000604512D3401E48F6AC6CB0FBFCFC4FF0A9
:10073000640808FB0C1148F6AC6CB0FBFCF80CFB31
:100740001800B0F5B67F00D9401C40F2B55CB0FB94
:10075000FCFC4FF0040808FB0C1140F2B55CB0FB48
:10076000FCF80CFB1800B0F5B77F0BD3401E40F22D
:100770006D1CB0FBFCFC614440F26D1CB0FBFCF84E
:100780000CFB1800BDE8F0832DE9F0430446154644
:10079000DDE9077CA4F26C74481EDFF8B48758F8D2
:1007A0002080A4F1460040F26D1909FB0088681E04
:1007B00008EB0002A4F145004FEAE07800EB9878DE
:1007C00002EBA80202290BDD4FEAE47804EB9878EB
:1007D0004FEAA808A4EB8808B8F1000F00D1521C1A
:1007E0003C2000FB07C04FF0180808FB02384FF40C
:1007F000616909FB08063046BDE8F0832DE9F04F3A
:1008000085B005464FF03C0BB5FBFBF70BFB175BC8
:10081000CDF804B04FF03C0BB7FBFBFC0BFB1C7B93
:10082000CDF808B04FF0180BBCFBFBFBCDF800B0C7
:100830004FF0180EDDF800B00EFB1BCBCDF810B05A
:10084000DDF800B00BF2DB2240F2B55BB2FBFBF847
:10085000B2FBFBFE0BFB1E29B9F13C0F01D308F1E3
:100860000108A2EB080B40F26D1EBBFBFEFAF3463B
:100870000AFB1B2BABEB0803B9F5B77F03D2B9F129
:100880003C0F00D35B1C0AF144060D204FF4B774F3
:100890000EE0401EA0F1010BDFF8B4E65EF82B403D
:1008A000022805D906F0030BBBF1000F00D1641C30
:1008B000A342EED3A3EB040B0BF1010BCDF80CB06C
:1008C000DDF804B081F800B0DDF808B081F801B0BF
:1008D000DDF810B081F802B0DDF80CB081F803B09B
:1008E000087106F26C7BC1F808B005B0BDE8F08F66
:1008F0002DE9FF4F0746DDE90D4540F22E6C6345BB
:100900000BDC634501D10A2C07DC40F22E6C6345F9
:1009100042D10A2C40D10E2D3EDDA4F10E094FF03C
:100920000C0A99FBFAFA03F59659D14440F2B55AEC
:1009300009FB0AF84FEAE87908EB99794FEAA90A26
:10094000A4F10E094FF00C0B99FBFBFBA4F102097B
:100950004FF00C0E0EFB1B9940F26F1B09FB0BF9BD
:1009600099FBFEF9CA44A4F10E0999FBFEF941F284
:10097000243B9B44D9444FF0640B99FBFBF909EBF2
:10098000490C4FEAEC790CEB9979AAEBA909A94437
:10099000A9F5FA424B3A25E0A4F109084FF00709FE
:1009A00098FBF9F841F289399944C844C8EBC80C5E
:1009B0004FEAEC780CEB98784FEAA80940F26F18F0
:1009C00003FB08F8A8EB090940F2131804FB08F828
:1009D0004FF0090A98FBFAF8C844A844DFF8749568
:1009E00008EB0902DFF870C5A2EB0C0C42F6881880
:1009F0000CEB0800A0F1010C42F68718BCFBF8F6DE
:100A0000C4460CFB160C0CF5B17042F6E92CACEBAD
:100A1000000C41F2C448BCFBF8FC4FF0320800FB6C
:100A200008F844F23759B8FBF9F80CFB08FC41F21E
:100A30002668B0FBF8F94FF02B0800FB08F843F6E6
:100A4000863AB8FBFAF809FB08C1C1F11E0C4FF059
:100A50000F08BCFBF8F844F2375C01FB0CFC4FF0CC
:100A60003209BCFBF9FC08FB1C08D44601FB0CFC5A
:100A70004FF02B09BCFBF9FC4FEA111909FB1C8C48
:100A80000CF11D0000EB400C4FEACC0C40F2C528E5
:100A9000BCFBF8F4DDF804C0CCF800404FF01E0CAD
:100AA0000CFB061CACF11E033B60C44604FB0CFCB3
:100AB0004FF018089CFBF8FCA0EB0C05DDF808C013
:100AC000CCF80050BDE8FF8F10B501460022002988
:100AD00001DD0122491E642391FBF3F30846CC1784
:100AE00001EB9474C3EBA4034FF4C87491FBF4F4CA
:100AF00023441A44104610BD0146CA1701EB9272F6
:100B00009210A1EB82020AB100207047642091FB91
:100B1000F0F200FB121008B10120F6E74FF4C870A4
:100B200091FBF0F200FB121008B90120EDE7002064
:100B3000EBE72DE9F04106460D461746072096FBE8
:100B4000F0F100FB116808F106083046FFF7BCFF22
:100B5000072190FBF1F201FB1200404400F10E046A
:100B6000FE4850F825000444022D04DD3046FFF70E
:100B7000C3FF00B1641C781E0444072094FBF0F10D
:100B800000FB114414B90020BDE8F081012C01D113
:100B90000120F9E7022C01D10220F5E7032C01D155
:100BA0000320F1E7042C01D10420EDE7052C01D14D
:100BB0000520E9E7062C01D10620E5E70120E3E75F
:100BC0002DE9FE4F07460C4640F22E6C63450BDCC8
:100BD000634501D10A2A07DC40F22E6C634542D1FD
:100BE0000A2A40D10E2C3EDDA2F10E094FF00C0A6C
:100BF00099FBFAFA03F59659D14440F2B55A09FB2C
:100C00000AF84FEAE87908EB99794FEAA90AA2F1C4
:100C10000E094FF00C0B99FBFBFBA2F102094FF000
:100C20000C0E0EFB1B9940F26F1B09FB0BF999FB95
:100C3000FEF9CA44A2F10E0999FBFEF941F2243BE8
:100C40009B44D9444FF0640B99FBFBF909EB490C29
:100C50004FEAEC790CEB9979AAEBA909A144A9F523
:100C6000FA454B3D25E0A2F109084FF0070998FB32
:100C7000F9F841F289399944C844C8EBC80C4FEAE5
:100C8000EC780CEB98784FEAA80940F26F1803FB58
:100C900008F8A8EB090940F2131802FB08F84FF016
:100CA000090A98FBFAF8C844A044DFF8A89208EBB8
:100CB0000905DFF8A4C2A5EB0C0C42F688180CEB72
:100CC0000800A0F1010C42F68718BCFBF8F6C446F8
:100CD0000CFB160C0CF5B17042F6E92CACEB000CD9
:100CE00041F2C448BCFBF8FC4FF0320800FB08F8A6
:100CF00044F23759B8FBF9F80CFB08FC41F22668BE
:100D0000B0FBF8F94FF02B0800FB08F843F6863AE1
:100D1000B8FBFAF809FB08C1C1F11E0C4FF00F082F
:100D2000BCFBF8F844F2375C01FB0CFC4FF03209D5
:100D3000BCFBF9FC08FB1C08D44601FB0CFC4FF083
:100D40002B09BCFBF9FC4FEA111909FB1C8C0CF1B7
:100D50001D0000EB400C4FEACC0C40F2C528BCFB58
:100D6000F8F20192C44602FB0CFC4FF018089CFB01
:100D7000F8FCA0EB0C0400944FF01E0C0CFB061CBE
:100D8000ACF11E030293DDE900C8DDF80890C7E965
:100D900000C8C7F80890BDE8FE8F2DE9F0418FB07C
:100DA00005460C4617469846159E43463A46214648
:100DB0006846FFF705FF9DE807000CAB07C34346F5
:100DC0003A46611C6846FFF7FBFE9DE8070009AB49
:100DD00007C3611E43463A466846FFF7F1FE9DE8A9
:100DE000070006AB07C30CA807C803AB07C3012E57
:100DF0000FD109A807C803AB07C30C981D2808D159
:100E00000998012805D10CA807C803AB07C31E2009
:100E10000390022E0BD106A807C803AB07C30C989A
:100E2000012804D106981D2801D11E20039003A893
:100E300007C885E807000FB0BDE8F0811FB505467B
:100E4000474C002606E000BF14F8011B0029FBD127
:100E5000701CC6B2AE4202D020780028F3D12346DF
:100E60002A4640A1434810F069FC4FF61F004FF698
:100E7000FF71404A1023CDE90032CDE90210C822AB
:100E80009C210A2003F0C3FA00BFFEE710B5034619
:100E9000002203E000241C705B1C521C8A42F9D320
:100EA00010BD10B52DED028B4FF400713248FFF7E5
:100EB000EDFF4FF47A6130480CF0DCFF2E492F48EB
:100EC00010F0D0FD4FF400712B48FFF7DFFF40F624
:100ED000A17129480CF0CEFF0021274812F0A0F99B
:100EE000B0EE408AF0EE608A51EC180B12F084FBF1
:100EF000234908604FF400711F48FFF7C7FF40F611
:100F0000A3711D480CF0B6FF00211B4812F088F9B0
:100F1000B0EE408AF0EE608A51EC180B12F06CFBD8
:100F2000184908604FF400711348FFF7AFFF40F60F
:100F3000A47111480CF09EFF00210F4812F070F9C7
:100F400022E00000A83C0108D83C0108B13A0200A8
:100F5000743C0108F1641A0018BB1D00083D01082B
:100F6000BC3E010872633D25752046525F25730A19
:100F70000D000000CA060020CA080020BA000020A8
:100F8000B000002098000020B0EE408AF0EE608AA9
:100F900051EC180B12F030FBF94908604FF4007166
:100FA000F848FFF773FF40F6A571F6480CF062FFB2
:100FB0000021F44812F034F9B0EE408AF0EE608A75
:100FC00051EC180B12F018FBEF4908604FF4007158
:100FD000EC48FFF75BFF40F6A271EA480CF04AFFCD
:100FE0000021E84812F01CF9B0EE408AF0EE608A69
:100FF00051EC180B12F000FBE44908604FF400714B
:10100000E048FFF743FF40F6A671DE480CF032FFE0
:101010000021DC4812F004F9B0EE408AF0EE608A5C
:1010200051EC180B12F0E8FAD94908604FF400713E
:10103000D448FFF72BFF40F6A771D2480CF01AFFF7
:101040000021D04812F0ECF8B0EE408AF0EE608A51
:1010500051EC180B12F0D0FACE4908604FF4007131
:10106000C848FFF713FF40F6A871C6480CF002FF0E
:101070000021C44812F0D4F8B0EE408AF0EE608A45
:1010800051EC180B12F0B8FAC34908604FF4007124
:10109000BC48FFF7FBFE40F6A971BA480CF0EAFE27
:1010A0000021B84812F0BCF8B0EE408AF0EE608A39
:1010B00051EC180B12F0A0FAB84908604FF4007117
:1010C000B048FFF7E3FE40F6AA71AE480CF0D2FE3E
:1010D000AC484078AB4908700846807848700846AC
:1010E000C07888700020C8700021A64812F098F8D7
:1010F000B0EE408AF0EE608A51EC180B12F07CFAE8
:10110000A7490860084600681E2803D308460078EF
:10111000A44908704FF400719A48FFF7B7FE40F6F3
:10112000AB7198480CF0A6FE964840789549087037
:101130000846807848700846C07888700020C870DB
:101140000021904812F06CF8B0EE408AF0EE608A10
:1011500051EC180B12F050FA9149086008460068EB
:101160003C2803D3084600788F4908704FF400717B
:101170008448FFF78BFE40F6AD7182480CF07AFE92
:1011800080498A4810F06EFC4FF400717D48FFF7EB
:101190007DFE40F6AF717B480CF06CFE0021794873
:1011A00012F03EF8B0EE408AF0EE608A51EC180B77
:1011B00012F022FA7E4908704FF400717148FFF76F
:1011C00065FE4FF47B616F480CF054FE00216D48C2
:1011D00012F026F8B0EE408AF0EE608A51EC180B5F
:1011E00012F00AFA734908704FF400716548FFF76E
:1011F0004DFE40F6B17163480CF03CFE00216148A1
:1012000012F00EF8B0EE408AF0EE608A51EC180B46
:1012100012F0F2F9684908604FF400715948FFF77D
:1012200035FE40F6B27157480CF024FE00215548B7
:1012300011F0F6FFB0EE408AF0EE608A51EC180B28
:1012400012F0DAF95D4908604FF400714D48FFF77C
:101250001DFE40F6B3714B480CF00CFE00214948CE
:1012600011F0DEFFB0EE408AF0EE608A51EC180B10
:1012700012F0C2F952490860BDEC028B10BD10B5E6
:101280004FF400714F48FFF701FE00224EA14D4878
:1012900010F054FA40F6A1714A480CF0CCFD4FF41E
:1012A00000714848FFF7F2FD41F2883246A14548F7
:1012B00010F044FA40F6A37142480CF0BCFD4FF424
:1012C00000714048FFF7E2FD00223FA13D4810F0C9
:1012D00035FA40F6A2713B480CF0ADFD4FF40071B9
:1012E0003848FFF7D3FD48F6B80237A1354810F06B
:1012F00025FA40F6A67133480CF09DFD4FF40071BD
:101300003048FFF7C3FD47F230522FA12D4810F0AF
:1013100015FA40F6A4712B480CF08DFD4FF40071C6
:101320002848FFF7B3FD41F2883227A1254810F085
:1013300005FA40F6A57123480CF07DFD4FF40071CD
:101340002048FFF7A3FD4EF660221FA11D4810F0B4
:10135000F5F940F6A7711B480CF06DFD4FF40071D4
:101360001848FFF793FD48F6B80217A1154810F08A
:10137000E5F940F6A87113480CF05DFD10BD0000C2
:10138000A8000020CA0800209C000020B400002013
:10139000A0000020AC000020A40000207800002065
:1013A0008C0000209100002093000020CE1000202F
:1013B000690100206A0100207C00002080000020DC
:1013C00084000020CA060020256900008AB000249D
:1013D000642000F0A2FB07F04BFD00F0B3FEF949DA
:1013E000002006F0F0FD50B1F7A010210B464FF49D
:1013F0009672CDE900100F21002002F09FFF00231C
:10140000F84A1946184607F092FE1021F6480CF0EB
:101410002DFF0CF049FA0CF066FBFFF730FFFFF7E9
:1014200040FD0BF0A7FF4AF20F4140F2CF7009F0E8
:1014300055FE07F0F9FD0120EC4908704AF20F4112
:1014400040F69F7009F0CDFC4AF20F4140F28F1038
:1014500009F075FE0121E6480FF017FEF5E2E548B8
:10146000007800287DD00120E04908704FF2DE703E
:1014700000F043FE4FF40071DF48FFF707FDDF483F
:10148000DFA10268DC4810F059F940F27F10DA4918
:1014900010220223CDE90532CDE90710DAA1092394
:1014A000CDE90132CDE903104CF21860E6234FF488
:1014B0009B72B4210090DC2003F005F9B7212020B5
:1014C00004F044FFCC49D14805F070F940F27F1098
:1014D00003F05AFA052003F065FA0121C64804F02A
:1014E00056FF4FF40071C448FFF7D0FCC848C4A1B0
:1014F0000268C14810F022F940F27F10BE49102264
:101500000223CDE90532CDE90710BFA10A23CDE9B9
:101510000132CDE903104CF21860E6236422B421B5
:1015200000900A2003F0CFF8B721F22004F00EFF5C
:10153000B149B84805F03AF940F27F1003F024FAB7
:10154000052003F02FFA0121AB4804F020FF4FF4EF
:101550000071A948FFF79AFCAF48B0A10268A648FD
:1015600000E040E010F0EAF840F27F10A2491022BB
:101570000623CDE90532CDE90710A3A10F23CDE95C
:101580000132CDE903104CF218608223E62250218B
:1015900000905A2003F097F85321782004F0D6FEEB
:1015A0009549A04805F002F940F27F1003F0ECF9EC
:1015B000052003F0F7F901218F4804F0E8FE8021AF
:1015C00099480CF053FE4FF4967000F0A6FA802173
:1015D00095480CF04DFE40F6B83000F09EFA002021
:1015E0008449087083E181480078002876D0002083
:1015F0007E4908704FF2DE7000F07FFD4FF40071FD
:101600007D48FFF743FC7D487DA102687A4810F0D1
:1016100095F840F27F10784910220223CDE9053277
:10162000CDE9071078A10923CDE90132CDE90310F6
:101630004CF21860E6234FF49B72B4210090DC203A
:1016400003F041F8B721202004F080FE6A496F487A
:1016500005F0ACF840F27F1003F096F9052003F096
:10166000A1F90121644804F092FE4FF40071624830
:10167000FFF70CFC664862A102685F4810F05EF854
:1016800040F27F105C4910220223CDE90532CDE9FA
:1016900007105DA10A23CDE90132CDE903104CF218
:1016A0001860E6236422B42100900A2003F00BF8AE
:1016B000B721F22004F04AFE4F49564805F076F86B
:1016C00040F27F1003F060F9052003F06BF901216F
:1016D000494804F05CFE01205449087054480078E1
:1016E00000286ED000205249087052484378027892
:1016F00051A1414810F022F84FF2DE7040F27F1104
:101700003D4B3022CDE9001032216B2002F0ECFE7F
:101710004C48806800904B4843684BA1C2683648EB
:1017200010F00CF84FF2DE7040F27F11324A1023B5
:10173000CDE90032CDE90210C82255215A2002F02D
:1017400066FE4548007808280DD2DFE800F09C04CA
:101750000D161F28319355215A2004F0F7FD264914
:101760003E4805F023F88EE055215A2004F0EEFDA6
:1017700021493B4805F01AF885E055215A2004F02C
:10178000E5FD1D49374805F011F87CE055215A2048
:1017900004F0DCFD1849344805F008F873E05521E1
:1017A0005A2004F0D3FD1449304804F0FFFF6AE0EA
:1017B00055215A2004F0CAFD0F492D4804F0F6FFC8
:1017C00061E070E038020020636F756C64206E6F1A
:1017D00074206F70656E2066696C657379737465CB
:1017E0006D0000000C0000200018024040000020A6
:1017F000004401403D000020CA0600208000002077
:10180000253033690000000020000000C83D0108B9
:1018100084000020D93D01087C0000202530366975
:1018200000000000AB3D010800140240C800002089
:1018300065010020CC000020253032693A25303285
:1018400069000000140E0020253032692F25303247
:10185000692F253032690000D0000020403D01088A
:101860004F3D01085E3D01086F3D0108823D0108C2
:10187000953D010855215A2004F068FD73497448CC
:1018800004F094FF00BF00BF40F27F1003F07CF82B
:10189000052003F087F801216C4804F078FD102141
:1018A0006C480CF0E3FC6C48007800B300206A49F7
:1018B0000870002169480EF0C7FF002168480EF04B
:1018C000C3FF002167480EF0BFFF67480BF0EEF939
:1018D00006200AF077FD012160480EF0B5FF0121D6
:1018E0005F480EF0B1FF01215E480EF0ADFF5F488A
:1018F000007800287DD000205C4908705C490870A1
:1019000098E05B480078401C594908704FF400711A
:101910005848FFF7BBFA5848016856480CF0AAFA35
:10192000032405E05348015DE01E544A1154641C31
:10193000082CF7D3002051494871142406E04D4883
:10194000015DA4F114004E4A1154641C1E2CF6D300
:1019500000204B4988724FF400713C48FFF796FA1B
:1019600048A13A4810F07EF84249384810F09EF8F5
:1019700000213A480EF068FF002139480EF064FF5C
:10198000002138480EF060FF30480BF0BCF901210F
:1019900032480EF059FF012131480EF055FF012168
:1019A00030480EF051FF45480078E8B30020434925
:1019B000087031480068401C2F49086008460068DC
:1019C0004EF66021884220D92B4800683C490968BE
:1019D00088421AD948F6B800274908604EF66020B8
:1019E000374908604FF400711848FFF74FFA344840
:1019F00000E02AE0AFF23061026814480FF09EFE6A
:101A000040F6A77111480CF016FA4FF400710F4818
:101A1000FFF73CFA1848AFF2506102680B480FF02C
:101A20008DFE40F6A87100E004E008480CF003FACF
:101A30000AF016FC1048006822490968884204D060
:101A40000B4800780228FFF65CAF08E5CA060020C4
:101A5000A03D0108001802408D0100200004014053
:101A600000440140001800408E0100209200002038
:101A7000B9000020CA080020A40000204200002075
:101A8000240E0020687474703A2F2F736562617A97
:101A900061722E69722F7365624170692F6461747F
:101AA00061446173746761682F76322F696E736564
:101AB0007274446174612E7068703F0010020020DF
:101AC000AC000020A00000200948804709480047DA
:101AD000FEE7FEE7FEE7FEE7FEE7FEE7FEE7FEE7DE
:101AE000FEE7FEE704480549054A064B704700003B
:101AF000016F00088901000848150020481B0020DC
:101B00004817002048170020002100E0491CC0EBC6
:101B1000001252008A42F9D8704710B503461C469D
:101B200004E0641E40F2E630FFF7EEFF002CF8D12F
:101B300010BD0000F74908807047F649891C0880ED
:101B40007047F448801C00887047F249088070474D
:101B5000F04A1080921C1180704710B50446204650
:101B6000FFF7E8FF0520FFF7CFFFFFF7EAFF10BD03
:101B7000E948C079E74908807047E649891C088030
:101B8000704730B5014601F01F04C1F34513CA0A7E
:101B9000E50205EB43151544A8B230BD00BF011E98
:101BA000A0F10102D0B2FAD1704710B503460C463D
:101BB000D948808849F24131884205D0D64880888A
:101BC00046F60401884214D1D349087AFFF7B2FFE0
:101BD0001812FFF7B2FFD8B2FFF7AFFFCE49487A2D
:101BE000FFF7A8FF2012FFF7A8FFE0B2FFF7A5FF5D
:101BF00012E0C9488079012804D1C7480088401EF6
:101C0000C01A83B2C449087A1946FFF7A1FFC24936
:101C1000487A2146FFF79CFF10BD2DE9F0410546AB
:101C20000E4600240027A046BB480088A84203DDDA
:101C3000B9484088B04202DC0020BDE8F08131465E
:101C40002846FFF7B2FFB448808849F24131884204
:101C500005D0B148808846F60401884203D12E2081
:101C6000FFF768FF02E02220FFF764FFAA488088A0
:101C700049F22031884202D10220FFF78FFFA548A8
:101C8000801C008800B100240220FFF787FFA148D4
:101C9000801C0488A048808849F2413188420CD1D8
:101CA0000220FFF77BFF9B48801CB0F80080E7B262
:101CB0004FF6FF7000EA072708E09748808846F64D
:101CC0000401884202D19348801C0488924880888D
:101CD00049F22531884216D08F48808844F2355128
:101CE000884210D08C488088091F88420BD08A48CF
:101CF000808848F68911884205D0874880884BF251
:101D00000551884201D1204697E78348808849F2EF
:101D10004131884207D1E012C002B91240EA4110B5
:101D200040EAE82089E72046FFF72BFF85E700B56A
:101D30007948808849F24131884205D076488088C8
:101D400046F60401884203D12920FFF7F3FE04E0A0
:101D500040F273110720FFF7FBFE00BD00B56E488F
:101D6000808849F24131884205D06B48808846F628
:101D70000401884203D12820FFF7DCFE03E00021A4
:101D80000720FFF7E5FE00BD70B5044600230026DE
:101D90006148807901281ED15F48808846F6040199
:101DA000884218D0082C15D2DFE804F00406080A8F
:101DB0000C0E101206240DE007240BE0042409E0A9
:101DC000052407E0012405E0002403E0032401E0EA
:101DD000022400BF00BF5048808849F24131884248
:101DE00005D04D48808846F6040188427CD1082CF5
:101DF0001CD2DFE804F00406090C0F12151800BF0E
:101E000014E043F0800311E043F040030EE043F0A0
:101E1000C0030BE043F0200308E043F0600305E05B
:101E200043F0A00302E043F0E00300BF00BF36260A
:101E300043F008033848808846F60401884201D1FF
:101E400043F0020319463046FFF782FE03F02000FC
:101E500068B13148008830494988884214DA2E48F0
:101E6000058840882C490880084645800CE02A48AF
:101E7000008829494988884206DD27480588408826
:101E800025490880084645802349087AFFF752FE15
:101E90000020FFF752FE0020FFF74FFE1E49098881
:101EA000491EC1F30F20FFF748FE1B490978491E60
:101EB000C8B2FFF742FE1849487AFFF73BFE002000
:101EC000FFF73BFE0020FFF738FE13494988491E03
:101ED000C1F30F20FFF731FE0F498978491EC8B2C0
:101EE000FFF72BFE36E0FFE7082C20D2DFE804F0F6
:101EF00004070A0D0F16191C43F0300317E043F0D6
:101F0000100314E043F0200311E000BF0FE043F0A2
:101F100038030CE0FE07006C300E002043F028036D
:101F200005E043F0180302E043F0080300BF00BFE0
:101F3000FE48808848F68911884204D1112646F26D
:101F40004000034302E0032643F480531946304621
:101F5000FFF7FEFD70BD30B504460D46294620460C
:101F6000FFF723FEFFF704FEF1480088F1490880DF
:101F700030BD70B505460E46144631462846FFF77B
:101F800014FEFFF7F5FDEB48048070BD30B5034645
:101F90000C461546E548808849F24131884205D013
:101FA000E248808846F60401884214D1DF49087A65
:101FB000FFF7C0FD1812FFF7C0FDD8B2FFF7BDFD57
:101FC000DA49487AFFF7B6FD2012FFF7B6FDE0B216
:101FD000FFF7B3FD12E0D5488079012804D1D3483A
:101FE0000088401EC01A83B2D049087A1946FFF70C
:101FF000AFFDCE49487A2146FFF7AAFDCB48C0790C
:10200000CC49891E0880881C058030BD10B5044667
:10201000002C3DD1C5498871F02008804FF4A07094
:1020200048800846808849F24131884205D0BF483F
:10203000808846F60401884214D12C20BB49C8711F
:102040002A2008722B2048720846808846F6040130
:1020500088424ED14FF4A070B44908804FF4F0701C
:10206000488046E0B148808848F68911884207D107
:102070002220AE49C8714E2008724F20487238E0C5
:102080002220AA49C871202008722120487230E01D
:10209000A648808846F6040188422AD00120A34938
:1020A00088714FF4A0700880F0204880084680882E
:1020B00049F24131884207D12C209C49C8712A201D
:1020C00008722B20487214E09848808848F68911DD
:1020D000884207D122209549C8714F2008724E20AE
:1020E000487206E022209149C87121200872202000
:1020F00048720020FFF748FE10BD70B50446002668
:102100008A4805884088454340F223110720FFF79D
:102110001FFD0A20FFF701FD00210846FFF745FDDE
:10212000FFF726FD00BF02E082480480761CAE4225
:10213000FAD340F233110720FFF70AFD0A20FFF718
:10214000ECFC70BD00B59FB0012108460CF07AFA96
:10215000012178200CF054FA4FF480601D90022089
:102160008DF8780000208DF87A0003208DF8790032
:102170001DA971480BF0FEFF4CF233701D90022038
:102180008DF8780000208DF87A0003208DF8790012
:102190001DA96A480BF0EEFF4FF680701D900220DB
:1021A0008DF8780000208DF87A0003208DF87900F2
:1021B0001DA963480BF0DEFF41F201001D900220D3
:1021C0008DF8780000208DF87A0003208DF87900D2
:1021D0001DA95C480BF0CEFF0C22002157480CF0E3
:1021E00054F80C22012155480CF04FF80C22042120
:1021F00052480CF04AF80C22052150480CF045F8E2
:102200000C2208214D480CF040F80C2209214B48C3
:102210000CF03BF80C220A2148480CF036F80C224E
:102220000E2146480CF031F80C220F2143480CF0E7
:102230002CF80C22072142480CF027F80C22082128
:102240003F480CF022F80C2209213D480CF01DF803
:102250000C220A213A480CF018F80C220B213848BD
:102260000CF013F80C22114635480CF00EF80C2235
:102270000D2133480CF009F80C220E2130480CF0E7
:1022800004F80C220F212E480BF0FFFF0C22002136
:102290002C480BF0FAFF0C2211462A480BF0F5FFF0
:1022A00001200790002008900F20099000200A903C
:1022B0000B900C900D9003200090002001900920BD
:1022C00002900020039004900590069006200E9046
:1022D00000200F9010901020119000201290149068
:1022E0001390159016904FF480501790002018907E
:1022F0004FF48040199000201A9007A81B90CDF849
:1023000070D00EA80CF0E3FC012106200CF08BFD30
:102310003220FFF702FC01210020FFF719FC3220D8
:10232000FFF7FBFB0020FFF718FC0DE0300E00204C
:10233000EC0000200008006C00040240000C024089
:102340000010024000180240FE498880084680883C
:10235000FF280ADB084680884FF6FF71884204D0C8
:10236000F8488088B0F5134F4BD1D320FFF7E2FB3C
:10237000FFF7E7FBFFF7E5FBFFF7E3FBF149888099
:10238000084680884FF6FF7101EA0020ED498880F9
:10239000FFF7D7FBEB4989880843EA49888008465C
:1023A000808849F2413188421BD0BF20FFF7C2FB31
:1023B000FFF7C7FBFFF7C5FBFFF7C3FBFFF7C1FB49
:1023C000E0498880084680884FF6FF7101EA0020C6
:1023D000DC498880FFF7B5FBDA4989880843D94989
:1023E0008880D848808849F24131884209D0D54850
:1023F000808846F60401884203D049F24130D14931
:102400008880D048808849F2413188427ED1CF20EF
:10241000FFF790FB0020FFF790FBC120FFF78DFB3B
:102420003020FFF78AFBED20FFF784FB6420FFF7E5
:1024300084FB0320FFF781FB1220FFF77EFB812046
:10244000FFF77BFBE820FFF775FB8520FFF775FBA7
:102450001020FFF772FB7A20FFF76FFBCB20FFF70E
:1024600069FB3920FFF769FB2C20FFF766FB002092
:10247000FFF763FB3420FFF760FB0220FFF75DFBF3
:10248000F720FFF757FB2020FFF757FBEA20FFF765
:1024900051FB0020FFF751FB0020FFF74EFBC0204F
:1024A000FFF748FB1B20FFF748FBC120FFF742FB6B
:1024B0000120FFF742FBC520FFF73CFB3020FFF770
:1024C0003CFB3020FFF739FBC720FFF733FBB72079
:1024D000FFF733FB3620FFF72DFB4820FFF72DFBDE
:1024E0003A20FFF727FB5520FFF727FBB120FFF726
:1024F00021FB0020FFF721FB1A20FFF71EFBB6206F
:10250000FFF718FB0A20FFF718FB00E097E0A22076
:10251000FFF713FBF220FFF70DFB0020FFF70DFB89
:102520002620FFF707FB0120FFF707FBE020FFF75E
:1025300001FB0F20FFF701FB2A20FFF7FEFA2820FE
:10254000FFF7FBFA0820FFF7F8FA0E20FFF7F5FA7D
:102550000820FFF7F2FA5420FFF7EFFAA920FFF75F
:10256000ECFA4320FFF7E9FA0A20FFF7E6FA0F201A
:10257000FFF7E3FA0020FFF7E0FA0020FFF7DDFAAB
:102580000020FFF7DAFA0020FFF7D7FAE120FFF783
:10259000D1FA0020FFF7D1FA1520FFF7CEFA172065
:1025A000FFF7CBFA0720FFF7C8FA1120FFF7C5FAAB
:1025B0000620FFF7C2FA2B20FFF7BFFA5620FFF7DD
:1025C000BCFA3C20FFF7B9FA0520FFF7B6FA102055
:1025D000FFF7B3FA0F20FFF7B0FA3F20FFF7ADFA8D
:1025E0003F20FFF7AAFA0F20FFF7A7FA2B20FFF7EB
:1025F000A1FA0020FFF7A1FA0020FFF79EFA0120C0
:10260000FFF79BFA3F20FFF798FA2A20FFF792FA8C
:102610000020FFF792FA0020FFF78FFA0020FFF763
:102620008CFAEF20FFF789FA1120FFF783FA782060
:10263000FFF773FA2920FFF77DFA01F014BA414839
:10264000808846F6040188427ED11120FFF772FA95
:102650001420FFF762FAD020FFF76CFA0720FFF78B
:102660006CFA4220FFF769FA1D20FFF766FAD120C5
:10267000FFF760FA0020FFF760FA1A20FFF75DFA13
:102680000920FFF75AFAD220FFF754FA0120FFF78A
:1026900054FA2220FFF751FAC020FFF74BFA10201E
:1026A000FFF74BFA3B20FFF748FA0020FFF745FA07
:1026B0000220FFF742FA1120FFF73FFAC520FFF78B
:1026C00039FA0320FFF739FAC820FFF733FA002060
:1026D000FFF733FA2520FFF730FA2120FFF72DFA14
:1026E0000520FFF72AFA0020FFF727FA0A20FFF754
:1026F00024FA6520FFF721FA2520FFF71EFA77203C
:10270000FFF71BFA5020FFF718FA0F20FFF715FA12
:102710000020FFF712FAF820FFF70CFA0120FFF76C
:102720000CFAFE20FFF706FA0020FFF706FA022057
:10273000FFF703FA2020FFF7FDF93620FFF7FAF93B
:10274000082002E0300E00202CE0FFF7F6F93A20D6
:10275000FFF7F0F95520FFF7F0F92B20FFF7EAF922
:102760000020FFF7EAF90020FFF7E7F90120FFF763
:10277000E4F93F20FFF7E1F92A20FFF7DBF9002019
:10278000FFF7DBF90020FFF7D8F90120FFF7D5F9B3
:10279000DF20FFF7D2F97820FFF7BFF92920FFF7F4
:1027A000C9F94AE7FE48808849F2253188427DD13F
:1027B00047F6F001E520FFF7CBF94FF480710120D7
:1027C000FFF7C6F94FF4E0610220FFF7C1F941F2CB
:1027D00030010320FFF7BCF900210420FFF7B8F90E
:1027E00040F202210820FFF7B3F900210920FFF78A
:1027F000AFF900210A20FFF7ABF900210C20FFF709
:10280000A7F900210D20FFF7A3F900210F20FFF702
:102810009FF900211020FFF79BF907211120FFF7F6
:1028200097F900211220FFF793F900211320FFF7F9
:102830008FF900210720FFF78BF941F290611020FA
:10284000FFF786F940F227211120FFF781F99D213A
:102850001220FFF77DF94FF4C8511320FFF778F9E4
:1028600025212920FFF774F90D212B20FFF770F99E
:1028700007213020FFF76CF940F203313120FFF7D8
:1028800067F903213220FFF763F940F20621352072
:10289000FFF75EF908213620FFF75AF940F20641AA
:1028A0003720FFF755F94FF4417100E058E0382028
:1028B000FFF74EF907213920FFF74AF940F202618C
:1028C0003C20FFF745F908213D20FFF741F90021A1
:1028D0005020FFF73DF9EF215120FFF739F9002192
:1028E0005220FFF735F940F23F115320FFF730F93E
:1028F0004FF427416020FFF72BF901216120FFF7FA
:1029000027F900216A20FFF723F900218020FFF733
:102910001FF900218120FFF71BF900218220FFF71A
:1029200017F900218320FFF713F900218420FFF716
:102930000FF900218520FFF70BF910219020FFF7F8
:1029400007F94FF4C0619220FFF702F940F233110A
:102950000720FFF7FDF822210020FFF7F9F86CE6C9
:102960008F48808849F2283188427DD141F28F0119
:10297000EC20FFF7EDF841F23421EF20FFF7E8F803
:102980004FF480710120FFF7E3F84FF4E06102207B
:10299000FFF7DEF841F230010320FFF7D9F80021FC
:1029A0000420FFF7D5F840F202210820FFF7D0F805
:1029B00000210920FFF7CCF800210A20FFF7C8F812
:1029C00001210C20FFF7C4F800210D20FFF7C0F80B
:1029D00000210F20FFF7BCF800211020FFF7B8F806
:1029E00007211120FFF7B4F800211220FFF7B0F8FB
:1029F00000211320FFF7ACF801210720FFF7A8F80A
:102A00003220FFF78AF841F290411020FFF7A0F83A
:102A100040F227211120FFF79BF83220FFF77DF8C5
:102A20008A211220FFF794F83220FFF776F84FF44E
:102A3000D0511320FFF78CF806212920FFF788F8E2
:102A40000D212B20FFF784F83220FFF766F80021D4
:102A50002020FFF77DF800212120FFF779F83220B0
:102A6000FFF75BF8002100E075E03020FFF770F819
:102A700040F204613120FFF76BF840F2053132205B
:102A8000FFF766F800213520FFF762F840F60941AC
:102A90003620FFF75DF84FF401713720FFF758F843
:102AA00040F201313820FFF753F840F20771392026
:102AB000FFF74EF800213C20FFF74AF840F60A21C4
:102AC0003D20FFF745F83220FFF727F8002150207E
:102AD000FFF73EF8EF215120FFF73AF8002152208E
:102AE000FFF736F840F23F115320FFF731F84FF46B
:102AF00027416020FFF72CF801216120FFF728F81B
:102B000000216A20FFF724F800218020FFF720F839
:102B100000218120FFF71CF800218220FFF718F820
:102B200000218320FFF714F800218420FFF710F81C
:102B300000218520FFF70CF810219020FFF708F8FE
:102B40004FF4C0619220FFF703F840F233110720E1
:102B5000FEF7FEFF71E51248808849F22031884275
:102B60007ED100210846FEF7F3FF4FF4807101206B
:102B7000FEF7EEFF4FF4E0610220FEF7E9FF41F2BD
:102B800030010320FEF7E4FF00210420FEF7E0FF00
:102B900040F202210820FEF7DBFF0021092001E0BE
:102BA000300E0020FEF7D4FF00210A20FEF7D0FFF0
:102BB00001210C20FEF7CCFF00210D20FEF7C8FFFD
:102BC00000210F20FEF7C4FF3220FEF7A6FF40F2DF
:102BD00001110720FEF7BCFF3220FEF79EFF4FF4E5
:102BE00086511020FEF7B4FF07211120FEF7B0FF39
:102BF0004FF488711220FEF7ABFF4FF430611320C1
:102C0000FEF7A6FF00212920FEF7A2FF44F21001E3
:102C10002B20FEF79DFF00215020FEF799FFEF21AA
:102C20005120FEF795FF00215220FEF791FF40F260
:102C30003F115320FEF78CFF4FF41C516020FEF72C
:102C400087FF01216120FEF783FF00216A20FEF744
:102C50007FFF00218020FEF77BFF0021812000E024
:102C600030E0FEF775FF00218220FEF771FF0021A2
:102C70008320FEF76DFF00218420FEF769FF00210D
:102C80008520FEF765FF10219020FEF761FF0021EF
:102C90009220FEF75DFF01219320FEF759FF4FF4CC
:102CA00088719520FEF754FF00219720FEF750FF12
:102CB00000219820FEF74CFF40F273110720FEF729
:102CC00047FFBAE4FE48808849F2313188427DD11D
:102CD00041F21401E720FEF73BFF4FF48071012021
:102CE000FEF736FF4FF400710220FEF731FF41F28C
:102CF00038010320FEF72CFF40F202210820FEF7E6
:102D000027FF00210920FEF723FF00210A20FEF7FC
:102D10001FFF00210C20FEF71BFF00210D20FEF7F6
:102D200017FF00210F20FEF713FF00211020FEF7F0
:102D30000FFF07211120FEF70BFF00211220FEF7E5
:102D400007FF00211320FEF703FFC820FEF7E5FE72
:102D500041F290611020FEF7FBFE40F22721112086
:102D6000FEF7F6FE3220FEF7D8FE0C211220FEF709
:102D7000EFFE3220FEF7D1FE4FF400611320FEF784
:102D8000E7FE11212920FEF7E3FE0B212B20FEF7A1
:102D9000DFFE3220FEF7C1FE00212020FEF7D8FE24
:102DA00040F23F112120FEF7D3FE00213020FEF734
:102DB000CFFE4FF483713120FEF7CAFE002132208E
:102DC000FEF7C6FE4FF40171352000E064E0FEF727
:102DD000BFFE41F20A613620FEF7BAFE40F20771EB
:102DE0003720FEF7B5FE4FF483713820FEF7B0FEB2
:102DF00040F207713920FEF7ABFE40F202413C2061
:102E0000FEF7A6FE40F60F413D20FEF7A1FE002191
:102E10005020FEF79DFEEF215120FEF799FE002184
:102E20005220FEF795FE40F23F115320FEF790FE30
:102E30004FF41C516020FEF78BFE01216120FEF74C
:102E400087FE00216A20FEF783FE00218020FEF726
:102E50007FFE00218120FEF77BFE00218220FEF70D
:102E600077FE00218320FEF773FE00218420FEF709
:102E70006FFE00218520FEF76BFE10219020FEF7EB
:102E800067FE4FF4C0619220FEF762FE40F23311FC
:102E90000720FEF75DFE84E48948808845F20841FA
:102EA00088427DD14FF480710120FEF751FE4FF42E
:102EB000E0610220FEF74CFE41F230010320FEF7F4
:102EC00047FE00210420FEF743FE40F207210820C0
:102ED000FEF73EFE00210920FEF73AFE00210A20FF
:102EE000FEF736FE00210C20FEF732FE00210D20F9
:102EF000FEF72EFE00210F20FEF72AFE1420FEF71B
:102F00000CFE41F2B0611020FEF722FE01211120DB
:102F1000FEF71EFE01211720FEF71AFE4FF49C71EA
:102F20001220FEF715FE4FF400611320FEF710FE8D
:102F300009212920FEF70CFE09212A20FEF708FEB0
:102F40000021A420FEF704FE00215020FEF700FE21
:102F5000EF215120FEF7FCFD00215220FEF7F8FD85
:102F600040F23F115320FEF7F3FD4FF41C51602057
:102F7000FEF7EEFD01216120FEF7EAFD00216A2047
:102F8000FEF7E6FD00218020FEF7E2FD0021812012
:102F9000FEF7DEFD00218220FEF7DAFD002100E0D1
:102FA00024E08320FEF7D4FD00218420FEF7D0FD2D
:102FB00000218520FEF7CCFD13219020FEF7C8FDEF
:102FC00000219220FEF7C4FD03219320FEF7C0FDEF
:102FD0004FF488719520FEF7BBFD40F27311072076
:102FE000FEF7B6FD3220FEF798FDB8E4344880883D
:102FF00041F2055188427DD100210720FEF7A8FD4E
:103000003220FEF78AFD4FF48E711220FEF7A0FDEC
:103010000121A420FEF79CFD0F210820FEF798FD5A
:1030200008210A20FEF794FD08210D20FEF790FDEF
:1030300040F207713020FEF78BFD07213120FEF7AB
:1030400087FD40F203613220FEF782FD4FF4E0611C
:103050003320FEF77DFD40F202213420FEF778FD9B
:1030600002213520FEF774FD41F60F713620FEF780
:103070006FFD40F207713720FEF76AFD002138200E
:10308000FEF766FD00213920FEF762FD40F2077170
:103090003A20FEF75DFD00213B20FEF759FD072198
:1030A0003C20FEF755FD00213D20FEF751FD32206A
:1030B000FEF733FD01210720FEF74AFD012101E063
:1030C000300E00201720FEF743FD3220FEF725FDCD
:1030D0004FF4BD511020FEF73BFD40F217211120A7
:1030E000FEF736FD4FF48F711220FEF731FD4FF4DD
:1030F000706100E098E01320FEF72AFD00212A20ED
:10310000FEF726FD0A212920FEF722FD4FF49F71CC
:103110001220FEF71DFD00215020FEF719FDEF21C2
:103120005120FEF715FD00215220FEF711FD40F25F
:103130003F115320FEF70CFD4FF41C516020FEF7A9
:1031400007FD01216120FEF703FD00216A20FEF743
:10315000FFFC00218020FEF7FBFC00218120FEF710
:10316000F7FC00218220FEF7F3FC00218320FEF70C
:10317000EFFC00218420FEF7EBFC00218520FEF708
:10318000E7FC13219020FEF7E3FC4FF440719220FE
:10319000FEF7DEFC05219320FEF7DAFC00219520E6
:1031A000FEF7D6FC00219720FEF7D2FC00219820E4
:1031B000FEF7CEFC4FF480710120FEF7C9FC4FF4FE
:1031C000E0610220FEF7C4FC41F238010320FEF763
:1031D000BFFC00210420FEF7BBFC00210C20FEF701
:1031E000B7FC00210F20FEF7B3FC00212020FEF7E2
:1031F000AFFC00212120FEF7ABFC21210720FEF7C8
:10320000A7FC1420FEF789FC61210720FEF7A0FC33
:103210001420FEF782FC40F273110720FEF798FCA1
:103220001420FEF77AFC95E4FE4880884BF20551A5
:1032300088427CD100210846FEF78AFC002108461E
:10324000FEF786FC00210846FEF782FC00210846B6
:10325000FEF77EFC0121A420FEF77AFC1420FEF785
:103260005CFC4FF41C516020FEF772FC40F202211E
:103270000820FEF76DFC4FF405713020FEF768FC66
:1032800043F215713120FEF763FC40F204613220F5
:10329000FEF75EFC40F616613320FEF759FC42F261
:1032A00011213420FEF754FC4FF4A8513520FEF7CD
:1032B0004FFC48F207513620FEF74AFC41F2074125
:1032C0003720FEF745FC41F203413820FEF740FC71
:1032D00020213920FEF73CFC1A219020FEF738FC13
:1032E00000211020FEF734FC07211120FEF730FCEE
:1032F00000211220FEF72CFC00211320FEF728FCF1
:103300001420FEF70AFC4FF4E6611020FEF720FCC3
:1033100040F237111120FEF71BFC1420FEF7FDFBD5
:103320004FF4DC711220FEF713FC142000E085E05E
:10333000FEF7F3FB4FF470611320FEF709FC8021C8
:103340002A20FEF705FC48212920FEF701FC142065
:10335000FEF7E3FB4FF480710120FEF7F9FB4FF419
:10336000E0610220FEF7F4FB41F238010320FEF792
:10337000EFFB40F202210820FEF7EAFB00210A20C1
:10338000FEF7E6FB00210C20FEF7E2FB00210D20FA
:10339000FEF7DEFB30210E20FEF7DAFB0021502085
:1033A000FEF7D6FBEF215120FEF7D2FB0021522081
:1033B000FEF7CEFB40F23F115320FEF7C9FB4FF45E
:1033C0001C516020FEF7C4FB01216120FEF7C0FB09
:1033D00000216A20FEF7BCFB11219020FEF7B8FB0C
:1033E0004FF4C0619220FEF7B3FB40F202419320FC
:1033F000FEF7AEFB02219420FEF7AAFB1420FEF795
:103400008CFB01210720FEF7A3FB1420FEF785FBB0
:1034100061210720FEF79CFB40F273110720FEF7A5
:1034200097FB00212020FEF793FB00212120FEF7CF
:103430008FFB22210020FEF78BFB14E37948808864
:103440004CF2055188427CD100210846FEF780FBF2
:1034500000210846FEF77CFB1420FEF75EFB0021EE
:103460000846FEF775FB00210846FEF771FB0021B8
:103470000846FEF76DFB00210846FEF769FB0121B7
:10348000A420FEF765FB1420FEF747FB4FF41C5108
:103490006020FEF75DFB40F606010820FEF758FBB2
:1034A00040F203713020FEF753FB01213120FEF77B
:1034B0004FFB04213220FEF74BFB4FF48171332088
:1034C000FEF746FB4FF440713420FEF741FB40F21B
:1034D00003113520FEF73CFB1F213620FEF738FB99
:1034E00040F203713720FEF733FB01213820FEF74D
:1034F0002FFB04213920FEF72BFB15219020FEF72E
:1035000027FB4FF482611020FEF722FB40F2472197
:103510001120FEF71DFB4FF4DE711220FEF718FBA1
:103520004FF460611320FEF713FB7820FEF7F5FAE5
:103530004FF480710120FEF70BFB4FF40071022065
:1035400000E052E0FEF704FB41F230010320FEF7F9
:10355000FFFA08210A20FEF7FBFA00210C20FEF7F3
:10356000F7FA20210E20FEF7F3FA00210F20FEF7D4
:10357000EFFA00212020FEF7EBFA00212120FEF7D0
:10358000E7FA3D212A20FEF7E3FA1420FEF7C5FAF8
:103590002D212920FEF7DCFA00215020FEF7D8FA71
:1035A0004DF2EF015120FEF7D3FA00215220FEF731
:1035B000CFFA40F23F115320FEF7CAFA00216120F2
:1035C000FEF7C6FA00216A20FEF7C2FA4FF44071F6
:1035D0009220FEF7BDFA05219320FEF7B9FA4FF4C9
:1035E00080710720FEF7B4FA3DE20E48808848F665
:1035F000891188427ED101210020FEF7A9FA4AF6FE
:10360000A4010320FEF7A4FA00210C20FEF7A0FA83
:1036100040F60C010D20FEF79BFA4FF42C510E20C2
:1036200002E00000300E0020FEF792FAB0211E20CA
:10363000FEF78EFA42F63F310120FEF789FA4FF489
:10364000C0610220FEF784FA00211020FEF780FA04
:1036500046F278011120FEF77BFA00210520FEF7E3
:1036600077FA00210620FEF773FA4EF61C71162039
:10367000FEF76EFA03211720FEF76AFA40F23321B3
:103680000720FEF765FA00210B20FEF761FA002102
:103690000F20FEF75DFA00214120FEF759FA0021C4
:1036A0004220FEF755FA00214820FEF751FA40F279
:1036B0003F114920FEF74CFA00214A20FEF748FA54
:1036C00000214B20FEF744FA4FF46F414420FEF7EF
:1036D0003FFA00214520FEF73BFA40F23F11462019
:1036E000FEF736FA40F207713020FEF731FA4FF458
:1036F000017100E040E03120FEF72AFA4FF4017139
:103700003220FEF725FA40F202513320FEF720FA6C
:1037100040F207513420FEF71BFA4FF401713520B7
:10372000FEF716FA4FF401713620FEF711FA40F257
:1037300002513720FEF70CFA40F202313A20FEF730
:1037400007FA40F202313B20FEF702FA0021232063
:10375000FEF7FEF900212420FEF7FAF94FF40041AC
:103760002520FEF7F5F900214F20FEF7F1F90021A1
:103770004E20FEF7EDF976E1F748808844F23151AA
:1037800088427DD101210020FEF7E2F90A20FEF7F0
:10379000C4F941F228611020FEF7DAF90E21122057
:1037A000FEF7D6F940F639211320FEF7D1F90A20A9
:1037B000FEF7B3F940211120FEF7CAF95021152078
:1037C000FEF7C6F90A20FEF7A8F91E211220FEF71F
:1037D000BFF90A20FEF7A1F94FF4B1511020FEF70E
:1037E000B7F942F639211320FEF7B2F90A20FEF7A5
:1037F00094F94FF480710120FEF7AAF94FF440715B
:103800000220FEF7A5F941F238010320FEF7A0F9E6
:1038100040F202210820FEF79BF908210A20FEF75A
:1038200097F900213020FEF793F940F20241312050
:10383000FEF78EF94FF483713220FEF789F940F2DA
:1038400003513320FEF784F94FF482713420FEF7E0
:103850007FF940F201313520FEF77AF940F2077125
:103860003620FEF775F940F205313720FEF770F982
:103870004FF402713820FEF76BF940F60B7100E04F
:103880003CE03920FEF764F902214120FEF760F99F
:103890004FF41C516020FEF75BF901216120FEF717
:1038A00057F94FF404719020FEF752F94FF48571E7
:1038B0009220FEF74DF904219320FEF749F94FF4C9
:1038C0008071A020FEF744F901210720FEF740F99E
:1038D00021210720FEF73CF923210720FEF738F9C4
:1038E00033210720FEF734F940F233110720FEF7A9
:1038F0002FF90021A020FEF72BF9B4E0964880882C
:1039000044F235518842F8D130211520FEF720F9D4
:1039100010219A20FEF71CF920211120FEF718F93A
:1039200043F228411020FEF713F902211220FEF77E
:103930000FF941F238011320FEF70AF92820FEF7AB
:10394000ECF812210846FEF703F92820FEF7E5F807
:1039500043F220411020FEF7FBF843F23801132018
:10396000FEF7F6F84620FEF7D8F800213020FEF7E3
:10397000EFF840F202413120FEF7EAF840F2073159
:103980003220FEF7E5F84FF441713320FEF7E0F8FE
:1039900004213420FEF7DCF840F201413520FEF727
:1039A000D7F840F207713620FEF7D2F840F2053121
:1039B0003720FEF7CDF84FF4C2613820FEF7C8F883
:1039C0004FF4C2613920FEF7C3F84FF48071012033
:1039D000FEF7BEF84FF440710220FEF7B9F841F24D
:1039E00030010320FEF7B4F840F608010820FEF786
:1039F000AFF808210A20FEF7ABF84FF41C51602005
:103A0000FEF7A6F801216120FEF7A2F84FF49F719E
:103A10009020FEF79DF84FF480719220FEF798F801
:103A20004FF480719320FEF793F84FF44051A0209B
:103A3000FEF78EF81021A320FEF78AF80121072057
:103A4000FEF786F821210720FEF782F823210720C0
:103A5000FEF77EF833210720FEF77AF840F23311A3
:103A60000720FEF775F80120FEF7D0FA4FF48060CA
:103A70003A4908804FF6FF70FEF73FFB1FB000BDCC
:103A80002DE9F04F05460E4617469846DDF824A06E
:103A90004FF0000B781B401C1FFA80FB344613E0EC
:103AA00021462846FEF781F8FEF762F84FF000093C
:103AB00006E05046FEF741F809F101001FFA80F9CF
:103AC000D945F6DB601C84B24445E9DDBDE8F08FE2
:103AD0002DE9F84F07460D4690469946DDF828B087
:103AE000A8EB0700401C80B20090A9EB0500401C29
:103AF0001FFA80FA002415E0281981B23846FEF733
:103B000054F8FEF735F8002607E004FB0A603BF89E
:103B1000100013490880701C86B200988642F4DBBE
:103B2000601C84B25445E7DBBDE8F88F2DE9FF4FF8
:103B300084B081468A460020039002900698A0EB4C
:103B400009050798A0EB0A06CDF80490CDF800A06F
:103B5000002D07DD01270BE0300E00201A04024083
:103B60000008006C0DB9002702E04FF0FF376D42EE
:103B7000002E02DD4FF0010806E016B94FF00008F4
:103B800002E04FF0FF387642B54201DD2C4600E0FE
:103B900034464FF0000B21E0009A91B2019A90B2A6
:103BA000FEF7D9F903982844039002983044029014
:103BB0000398A04205DD0398001B03900198384448
:103BC00001900298A04205DD0298001B0290009827
:103BD000404400900BF101001FFA80FB601C8345FC
:103BE000DADD08B0BDE8F08F2DE9FF4F84B08146E3
:103BF0008A460020029083460698A0EB09050798A4
:103C0000A0EB0A06CDF80490CDF800A0002D01DD50
:103C1000012705E00DB9002702E04FF0FF376D42A4
:103C2000002E02DD4FF0010806E016B94FF0000843
:103C300002E04FF0FF387642B54201DD2C4600E04D
:103C40003446002003901EE0009A91B2019A90B28F
:103C5000119AFEF78EF9029828440290B344029814
:103C6000A04205DD0298001B0290019838440190A3
:103C7000A34504DDABEB040B00984044009003988F
:103C8000401C80B20390611C03988842DCDD08B0C0
:103C9000BDE8F08FF0B504460D4616461F462B468C
:103CA000324629462046FFF741FF3B462246294639
:103CB0002046FFF73BFF3B46324639462046FFF79A
:103CC00035FF3B46324629463046FFF72FFFF0BD11
:103CD0002DE9F84F05460E4617469846DDE90AB429
:103CE000002D00DA0025002E00DA0026B7F5A07FAF
:103CF00001DB40F23F17B8F1EF0F01DD4FF0EF08A5
:103D0000BBF1000F13D0B2460EE0A94608E01FFA3F
:103D10008AF11FFA89F02246FEF72BF909F1010911
:103D2000B945F4DD0AF1010AC245EEDD1BE0334678
:103D30003A46314628460094FFF756FF43462A4646
:103D4000314628460094FFF74FFF43463A46414626
:103D500028460094FFF748FF43463A463146384626
:103D60000094FFF741FFBDE8F88F2DE9F0470646C4
:103D70000F4690469A46002445460320A0EB48098A
:103D800044E07A1B91B2321990B25246FEF7F1F834
:103D90003A1B91B2721990B25246FEF7EAF83A19FC
:103DA00091B2721990B25246FEF7E3F87A1991B2C5
:103DB000321990B25246FEF7DCF87A1991B2321BF2
:103DC00090B25246FEF7D5F83A1991B2721B90B2F2
:103DD0005246FEF7CEF87A1B91B2321B90B2524691
:103DE000FEF7C7F83A1B91B2721B90B25246FEF72B
:103DF000C0F8641CB9F1000F03DAA000801D8144F3
:103E000004E0601B80000A3081446D1EAC42B8DDC6
:103E1000BDE8F0872DE9FF4F82B0804689461746FE
:103E2000059830281AD17800C0EBC00000EB4000A4
:103E3000FE4911F8200001907800C0EBC00000EBB3
:103E4000400001EB8000407800907800C0EBC0009B
:103E500000EB400001EB800090F802A000264EE04D
:103E6000002549E0012000EB4700C0EBC00000EB5B
:103E70004000EE4901EB800006FB0A5110F801B04A
:103E8000072436E00F9800BB0120A04000EA0B0099
:103E9000204101280CD108EBC502C4F107031A44E4
:103EA00090B209EB060291B2109AFEF762F81FE099
:103EB00008EBC502C4F107031A4490B209EB0602ED
:103EC00091B2119AFEF755F812E00120A04000EAE5
:103ED0000B00204101280BD108EBC502C4F10703F8
:103EE0001A4490B209EB060291B2109AFEF741F81B
:103EF000641E002CC6DA6D1C5545B3D3761C0098A1
:103F00008642ADD306B0BDE8F08F2DE9F84F0646E6
:103F10000F4690461C460097C548B0F80090A8F19F
:103F2000200000F0FF080A98002851D100254CE03D
:103F30000C2C07D108EB4800BE4901EB800010F8BB
:103F400005A006E0102C04D1BB4800EB081010F8C7
:103F500005A04FF0000B30E00AF0800018B1B44922
:103F60000B98088002E0B2490C9808803946304628
:103F7000FDF7F1FF4FF6FF7000EA4A0A781C87B29E
:103F8000AE480088B04204DCA948A0F80090BDE823
:103F9000F88F0098381AA0420BD1009F701C86B28F
:103FA000A6480088B04203DCA148A0F80090EEE7E4
:103FB00008E00BF101001FFA80FB04EBD471BBEBAE
:103FC000610FC9DB00BF681C85B2A542B0DB45E0CC
:103FD000002541E00C2C07D108EB4800954901EB86
:103FE000800010F805A004E0934800EB081010F8DA
:103FF00005A04FF0000B29E00AF0800020B13946FF
:1040000030460B9AFDF7B5FF4FF6FF7000EA4A0AFB
:10401000781C87B289480088B04203DC8448A0F845
:104020000090B4E70098381AA0420BD1009F701C92
:1040300086B282480088B04203DC7D48A0F8009038
:10404000A5E706E00BF101001FFA80FBBBF1080FAA
:10405000D2DB00BF681C85B2A542BBDB7448A0F868
:10406000009000BF93E72DE9F84F05460F469046B4
:104070001E4600976E48B0F80090A8F1200000F0AE
:10408000FF080A9800284ED1002449E00C2E07D1E1
:1040900008EB4800674901EB800010F804A004E039
:1040A000654800EB081010F804A04FF0000B31E059
:1040B0000AF0800018B15E48A0F8009003E0604864
:1040C00000885B49088039462846FDF744FF4FEADF
:1040D0004A604FEA106A781C87B258480088A842A4
:1040E00004DC5348A0F80090BDE8F88F0098381A17
:1040F000B0420BD1009F681C85B250480088A8428E
:1041000003DC4B48A0F80090EEE706E00BF101005D
:1041100000F0FF0BBBF1080FCADB00BF601CC4B28C
:10412000B442B3DB44E0002440E00C2E07D108EB9E
:104130004800404901EB800010F804A004E03E482C
:1041400000EB081010F804A04FF0000B28E00AF074
:10415000800018B139462846FDF7FDFE4FEA4A6057
:104160004FEA106A781C87B234480088A84203DC02
:104170002F48A0F80090B7E70098381AB0420BD14A
:10418000009F681C85B22D480088A84203DC28489F
:10419000A0F80090A8E706E00BF1010000F0FF0B8B
:1041A000BBF1080FD3DB00BF601CC4B2B442BCDB60
:1041B0001F48A0F8009000BF96E710B50246012006
:1041C00000E050430B1EA1F10104E1B2F9D110BD92
:1041D0002DE9FF4F81B0074691461E460E9D4FF0D8
:1041E000000A002446E0301B401EC1B20A20FFF73F
:1041F000E4FFB9FBF0F00A21B0FBF1F201FB120879
:10420000BAF1000F23D1701EA04220DDB8F1000FDB
:104210001BD10020AB4605EBDB71491001FB04719B
:10422000009088B22B46202202990BE0F449010845
:10423000EC000020903F010804440108300E0020EB
:10424000EE000020FFF70FFF12E04FF0010A002000
:10425000AB4605EBDB71491001FB0471009088B29D
:1042600008F13001CAB22B460299FFF7FCFE00BFED
:10427000601CC4B2B442B6DB05B0BDE8F08F2DE9D6
:10428000FF4F82B0064692461F46DDE90F480020E8
:10429000019000254DE0781B401EC1B20A20FFF7B7
:1042A0008CFFBAFBF0F00A21B0FBF1F201FB12091E
:1042B000019850BB781EA84227DDB9F1000F22D12A
:1042C00008F0800078B108F00100A34604EBDB7130
:1042D000491001FB0561009088B223463022039902
:1042E000FFF7C1FE0EE008F00100A34604EBDB710E
:1042F000491001FB0561009088B2234620220399F2
:10430000FFF7B1FE13E00120019008F00100A34681
:1043100004EBDB71491001FB0561009088B209F1E3
:104320003001CAB223460399FFF79DFE00BF681C07
:10433000C5B2BD42AFDB06B0BDE8F08F2DE9F8474E
:1043400004460D4690469946DDE9096704F0FF0AE8
:1043500008EB04001FFA80F809EB05001FFA80F94A
:1043600016E0444502DB5446A81985B24D4500DBF2
:1043700014E0002000903A78334629462046FFF7A3
:1043800072FE304606EBD07104EB61018CB27F1CEB
:1043900038787E2802DC38782028E2DA00BFBDE8D1
:1043A000F8872DE9F84F04460D4617469846DDE993
:1043B0000B9A0A9E04F0FF0B381987B208EB050030
:1043C0001FFA80F81DE0AAF1010000F0FF0AB4F521
:1043D000A07F02DB5C46A81985B2F02D00DB13E05C
:1043E0000020009099F80020334629462046FFF728
:1043F0003AFE304606EBD07104EB61018CB209F154
:104400000109BAF1000FDED100BFBDE8F88F2DE938
:10441000FF4F04460D46904699460DAE96E8C00CF7
:10442000E0B2039008EB04001FFA80F809EB0500E6
:104430001FFA80F917E0444502DB039CA81985B2F6
:104440004D4500DB15E000208DE8010C3A7833463D
:1044500029462046FFF759FD304606EBD07104EBA4
:1044600061018CB27F1C38787E2802DC38782028E5
:10447000E1DA00BFBDE8FF8F2DE9FE4F04460D468F
:1044800090469946DDE90D7A0C9E04F0FF0B08EB8F
:1044900004001FFA80F809EB05001FFA80F91AE002
:1044A000444502DB5C46A81985B24D4500DB18E0A7
:1044B000FE4800880121CDE9001A02903A7833467F
:1044C00029462046FFF721FD304606EBD07104EB6C
:1044D00061018CB27F1C38787E2802DC3878202875
:1044E000DEDA00BFBDE8FE8F2DE9FF4F07468846A4
:1044F00014461D46DDE90D9A002672E0A85D3038AD
:104500000B2860D2DFE800F0060E161E262E363E7F
:10451000464E560000200390204604EBD071C1F3B4
:10452000470B50E001200390204604EBD071C1F30B
:10453000470B48E002200390204604EBD071C1F302
:10454000470B40E003200390204604EBD071C1F3F9
:10455000470B38E004200390204604EBD071C1F3F0
:10456000470B30E005200390204604EBD071C1F3E7
:10457000470B28E006200390204604EBD071C1F3DE
:10458000470B20E007200390204604EBD071C1F3D5
:10459000470B18E008200390204604EBD071C1F3CC
:1045A000470B10E009200390204604EBD071C1F3C3
:1045B000470B08E00A2003902046E11704EB9171B5
:1045C000C1F3870B00BF00BF002023468DE8010622
:1045D00041463846039AFFF71DFC07EB0B0087B2F4
:1045E000761CA85D002889D1BDE8FF8F2DE9F04F2A
:1045F00088B00746884691469A46DDE911B5139C76
:1046000053464A4641463846CDF800B0FFF738FADF
:104610000C2C01D0102C2CD1DDE91410CDE9020BAB
:10462000CDE9004108EB0A00079000EBD070401084
:10463000264604EBD673A0EB630081B207EB0900BA
:10464000049000EBD070401004EBD4735B1005EBCA
:10465000D57C4FEA6C0C03FB1C001FFA80FE05FBA7
:1046600004F082B223467046CDE90545FFF7CFFE40
:1046700026E0302C24D1159808EB0A02CDE9000B76
:10468000079202EBD2725210264604EBD673A2EBCD
:10469000630291B207EB0902049202EBD27252104C
:1046A00004EBD4735B1005EBD57C4FEA6C0C03FB79
:1046B0001C2290B2CDE905452246149BFFF714FF5A
:1046C00008B0BDE8F08F2DE9F04F2DED088B89B0D3
:1046D00006460F4690469946DDE91ABA209D1C9C75
:1046E0004B46424639463046CDF800B0FFF7C8F990
:1046F0000C2C01D0102C3FD120460EF0C1FF41EC14
:104700001B0B9FED6B0B53EC102B0FF009F841ECDA
:10471000190B07EB090000EBD071089048100EF060
:1047200098FF41EC1A0B53EC192B0FF02DF941ECCB
:10473000180B0EF061FF80B20490DDE91D10CDE989
:10474000020BCDE9004106EB0801059101EBD171A7
:10475000491004EBD4735B100AEBDA7C4FEA6C0C63
:1047600003FB1C1188B20AFB04F18AB22346CDE98F
:10477000064A0499FFF74BFE0C2D01D0102D40D1B5
:1047800028460EF07DFF41EC1B0B9FED4B0B53ECCD
:10479000102B0EF0C5FF41EC190B07EB090000EBE5
:1047A000D071089048100EF054FF41EC1A0B53ECF6
:1047B000192B0EF029FE41EC180B0EF01DFF80B2F4
:1047C0000490DDE92110CDE9020BCDE9005106EBA3
:1047D0000801059101EBD1714B1005EBD5714FEA42
:1047E000610C06951F99079101EBD17149100CFBE3
:1047F000113188B21F9969438AB22B460499FFF799
:1048000006FE09B0BDEC088BBDE8F08FF0B504469C
:104810000D4613461888598800FB01F7A1B22120E4
:10482000FDF796F9A1B25220FDF792F918882044BD
:10483000401E81B25320FDF78BF9C5F1EF0081B224
:104840002020FDF785F958882844C0F1EF0081B297
:104850005020FDF77DF9C5F1EF0081B25120FDF741
:1048600077F92220FDF766F9002605E0991C0B4632
:104870000888FDF762F9761C781C8642F6D3002181
:104880002120FDF765F900215220FDF761F940F282
:104890003F115320FDF75CF900212020FDF758F966
:1048A00000215020FDF754F9EF2109E0EE0000202F
:1048B0009A9999999999F13F9A9999999999B93FA2
:1048C0005120FDF745F9F0BD2DE9F04305460E46B0
:1048D00014461F46DDF81C802078617810FB01F932
:1048E000A9B22120FDF734F9A9B25220FDF730F921
:1048F00020782844401E81B25320FDF729F9C6F1E3
:10490000EF0081B22020FDF723F960783044C0F138
:10491000EF0081B25020FDF71BF9C6F1EF0081B224
:104920005120FDF715F92220FDF704F900230EE0D0
:10493000981C205C012803D13846FDF7FEF805E0FD
:10494000981C205C10B94046FDF7F7F85B1C4B45FE
:10495000EED300212120FDF7FBF800215220FDF7C6
:10496000F7F840F23F115320FDF7F2F80021202024
:10497000FDF7EEF800215020FDF7EAF8EF21512075
:10498000FDF7E6F8BDE8F083FE4908607047FE4990
:10499000086070470120FD49087070470020FB49FE
:1049A00008707047002803DB052801DCF84908601F
:1049B00070470120F749086070470020F5490860FA
:1049C00070472DE9F0410646F34800EB8610006879
:1049D000C0F30737002538E0002433E0EE4800EB51
:1049E000861050F82500E04000F0FF0808F00108AC
:1049F000B8F1000F11D0E34B1B889AB2E74B1B882C
:104A00002B4499B2E64B1B88234440F23D1CACEB8F
:104A1000030398B2FDF7ADFA13E0E248007880B1E5
:104A2000E14B1B889AB2DD4B1B882B4499B2DC4BBF
:104A30001B88234440F23D1CACEB030398B2FDF706
:104A400098FA641CBC42C9DB6D1C102DC4DBD44831
:104A500000683844D249086008460068B0F5A07F75
:104A60000CDB00200860CD4800681030CB4908609E
:104A700008460068F02801DD00200860BDE8F081EC
:104A80002DE9F04F0246002000250026002784462D
:104A900080468146E7E0B9F1000F01D1202408E00B
:104AA00012F801ACBAF1800F02DD12F8014C00E0FF
:104AB000202412F8011B92F800A0BAF1800F08DD43
:104AC00092F800A0BAF1000F01D1202302E0137880
:104AD00000E020234FF00109982900DD12E0982919
:104AE00001D1BC210EE0902901D1C0210AE08D291D
:104AF00001D1BE2106E0812901D1BD2102E08E292C
:104B000000D1BF21982C00DD12E0982C01D1BC24EB
:104B10000EE0902C01D1C0240AE08D2C01D1BE24DE
:104B200006E0812C01D1BD2402E08E2C00D1BF24EF
:104B3000982B00DD12E0982B01D1BC230EE0902BC6
:104B400001D1C0230AE08D2B01D1BE2306E0812BC9
:104B500001D1BD2302E08E2B00D1BF23802C13DDB9
:104B6000A4F1BC0A0AEB4A0ADFF840B20BEB4A0A8E
:104B70009AF805A0BAF1010F02D14FF0010A01E045
:104B80004FF0000A574600E00027802B13DDA3F109
:104B9000BC0A0AEB4A0ADFF814B20BEB4A0A9AF88D
:104BA00004A0BAF1010F02D14FF0010A01E04FF069
:104BB000000AD44601E04FF0000C802913DDA1F17A
:104BC000BC0A0AEB4A0ADFF8E4B10BEB4A0A9AF88E
:104BD00004A0BAF1010F02D14FF0010A01E04FF039
:104BE000000A564600E00026802913DDA1F1BC0A28
:104BF0000AEB4A0ADFF8B4B10BEB4A0A9AF805A0AF
:104C0000BAF1010F02D14FF0010A01E04FF0000AA2
:104C1000554600E000251FB116B14FF0010A01E032
:104C20004FF0000A56462DB1BCF1000F02D04FF0F4
:104C3000010A01E04FF0000A554645EA460A0AF02B
:104C4000FF08A1F1BC0A0AEB4A0ADFF860B10BEBDE
:104C50004A0A1AF808A0DFF840B10BEB8A1ADAF812
:104C600004A000EB1A3092F800A0BAF1000F7FF414
:104C700012AFBDE8F08F03B589B04749099801EB41
:104C800080100068C0F3073004900020079001F006
:104C90003BBB0020089001F02FBB3F49099801EB76
:104CA0008011079851F820000899C840C0B20390BD
:104CB000039800F0010003900398002878D034484E
:104CC0000068D8BB0020069032E00020059028E064
:104CD000304800880799C1F10701484300F23D10B0
:104CE000069942182E48036808990A9800FB01307B
:104CF000101A80B200902348008880B202902748A2
:104D0000026807990A9800FB01210598084480B2BF
:104D100001900146029A0098FDF72BF90598401C76
:104D200005900A9905988842D2DB0698401C0690A7
:104D30000A9906988842C8DB01F0DBBAFFE71448FD
:104D4000006801287ED1134800880799C1F1070146
:104D5000484300F23D1012490B68089A0A9901FB7A
:104D60000231401A80B200900648008880B202905A
:104D70000A48026807990A9800FB012080B2019056
:104D8000014616E0F000002008010020FD00002090
:104D9000000100200401002074690108F8000020CF
:104DA000F4000020FC0000200C01002034970108D2
:104DB000FEE3029A0098FDF7DCF8FE4800880799A8
:104DC000C1F10701484300F23D10FB490B68089A06
:104DD0000A9901FB0231401A80B20090F74800881E
:104DE00080B20290F648026807990A9800FB0120F9
:104DF000401E80B201900146029A0098FDF7B9F872
:104E0000EC4800880799C1F10701484300F23D10C2
:104E1000E9490B68089A0A9901FB0231401A80B2ED
:104E20000090E648008880B20290E5480268079941
:104E30000A9800FB0120401C80B201900146029AB2
:104E4000009800E046E0FDF794F8DA4800880799FA
:104E5000C1F10701484300F59E70D7490B68089AD5
:104E60000A9901FB0231401A80B20090D3480088B1
:104E700080B20290D248026807990A9800FB01208C
:104E800080B201900146029A0098FDF772F8C94875
:104E900000880799C1F10701484300F59F70C64992
:104EA0000B68089A0A9901FB0231401A80B20090FF
:104EB000C248008880B20290C148026807990A98E7
:104EC00000FB012080B201900146029A0098FDF794
:104ED00050F831E7BB48006802287DD1B54800880A
:104EE0000799C1F10701484300F23D10B2490B6830
:104EF000089A0A9901FB0231401A80B20090AF482B
:104F0000008880B20290AE48026807990A9800FBB8
:104F1000012080B201900146029A0098FDF729F81D
:104F2000A44800880799C1F10701484300F23D10E9
:104F3000A1490B68089A0A9901FB0231401A80B214
:104F400000909E48008880B202909D4802680799B0
:104F50000A9800FB0120401E80B201900146029A8F
:104F60000098FDF706F8934800880799C1F10701FA
:104F7000484300F23D1090490B68089A0A9901FBDA
:104F80000231401A80B200908C48008880B20290B2
:104F90008B48026807990A9800FB0120401C80B2E8
:104FA00001900146029A0098FCF7E3FF81480088CF
:104FB0000799C1F10701484300F59E707E490B68CF
:104FC000089A0A9901FB0231401A80B200907B488E
:104FD000008880B2029000E098E079480268079962
:104FE0000A9800FB0120401C80B201900146029A01
:104FF0000098FCF7BEFF6F4800880799C1F10701D0
:10500000484300F59F706C490B68089A0A9901FBA8
:105010000231401A80B200906848008880B2029045
:105020006748026807990A9800FB0120401C80B27B
:1050300001900146029A0098FCF79BFF5D480088AA
:105040000799C1F10701484300F59E705A490B6862
:10505000089A0A9901FB0231401A80B20090574821
:10506000008880B202905648026807990A9800FBAF
:10507000012080B201900146029A0098FCF779FF66
:105080004C4800880799C1F10701484300F59F701B
:1050900049490B68089A0A9901FB0231401A80B20B
:1050A00000904648008880B20290454802680799FF
:1050B0000A9800FB012080B201900146029A0098F4
:1050C000FCF757FF3B4800880799C1F107014843A7
:1050D00000F23D1038490B68089A0A9901FB023129
:1050E000401A80B200903548008880B2029034485F
:1050F000026807990A9800FB0120801C80B2019089
:105100000146029A0098FCF734FF15E62D48006826
:1051100003287DD1274800880799C1F1070148433A
:1051200000F23D1024490B68089A0A9901FB0231EC
:10513000401A80B200902148008880B20290204836
:10514000026807990A9800FB012080B2019001468D
:10515000029A0098FCF70DFF164800880799C1F1E4
:105160000701484300F23D1013490B68089A0A9959
:1051700001FB0231401A80B200901048008880B2D2
:1051800002900F48026807990A9800FB0120401E10
:1051900080B201900146029A0098FCF7EAFE0548A9
:1051A00000880799C1F10701484300F59F70024943
:1051B0000B6809E004010020F4000020F00000204A
:1051C000F800002000010020089A0A9901FB023132
:1051D000401A80B20090FE48008880B20290FD48DC
:1051E000026807990A9800FB0120401E80B20190D6
:1051F0000146029A0098FCF7BCFEF7480088079920
:10520000C1F10701484300F59E70F4490B6800E0C6
:10521000A2E0089A0A9901FB0231401A80B200907C
:10522000EB48008880B20290EA48026807990A9821
:1052300000FB012080B201900146029A0098FCF721
:1052400098FEE54800880799C1F10701484300F539
:105250009F70E2490B68089A0A9901FB0231401AD3
:1052600080B20090DA48008880B20290D948026883
:1052700007990A9800FB012080B201900146029A2A
:105280000098FCF776FED44800880799C1F1070121
:10529000484300F23F10D1490B68089A0A9901FB74
:1052A0000231401A80B20090C948008880B2029052
:1052B000C84802680A99079801FB002080B2019053
:1052C0000146029A0098FCF754FEC34800880799EB
:1052D000C1F10701484300F23D10C0490B68089A2C
:1052E0000A9901FB0231401A80B20090B848008848
:1052F00080B20290B748026807990A9800FB012023
:10530000401C80B201900146029A0098FCF731FEE1
:10531000B14800880799C1F10701484300F59F7023
:10532000AE490B68089A0A9901FB0231401A80B213
:105330000090A748008880B20290A64802680799AA
:105340000A9800FB0120401C80B201900146029A9D
:105350000098FCF70EFEEFE4A148006804287DD118
:105360009D4800880799C1F10701484300F23D10AC
:105370009A490B68089A0A9901FB0231401A80B2D7
:1053800000909348008880B20290924802680A997F
:10539000079801FB002080B201900146029A009814
:1053A000FCF7E7FD8C4800880799C1F107014843E5
:1053B00000F23D1089490B68089A0A9901FB0231F5
:1053C000401A80B200908248008880B202908148E2
:1053D000026807990A9800FB0120401E80B20190E4
:1053E0000146029A0098FCF7C4FD7B4800880799A3
:1053F000C1F10701484300F59F7078490B68089A8E
:105400000A9901FB0231401A80B20090704800886E
:1054100080B202906F48026807990A9800FB012049
:10542000401E80B201900146029A0098FCF7A1FD4F
:10543000694800880799C1F10701484300F23D100F
:1054400066490B68089A0A9901FB0231401A80B23A
:1054500000905F48008880B2029000E030E15D4833
:10546000026807990A9800FB0120401C80B2019055
:105470000146029A0098FCF77CFD5748008807997E
:10548000C1F10701484300F59E7054490B68089A22
:105490000A9901FB0231401A80B200904C48008802
:1054A00080B202904B48026807990A9800FB0120DD
:1054B000401C80B201900146029A0098FCF759FD09
:1054C000454800880799C1F10701484300F59F70DE
:1054D00042490B68089A0A9901FB0231401A80B2CE
:1054E00000903B48008880B202903A4802680799D1
:1054F0000A9800FB0120401C80B201900146029AEC
:105500000098FCF736FD344800880799C1F107017F
:10551000484300F23F1031490B68089A0A9901FB91
:105520000231401A80B200902948008880B202906F
:105530002848026807990A9800FB0120401C80B2A5
:1055400001900146029A0098FCF713FD224800885A
:105550000799C1F10701484300F59E701F490B6888
:10556000089A0A9901FB0231401A80B2009018484B
:10557000008880B202901748026807990A9800FBD9
:10558000012080B201900146029A0098FCF7F1FCDC
:10559000114800880799C1F10701484300F59F7041
:1055A0000E490B68089A0A9901FB0231401A00E083
:1055B00015E180B200900648008880B2029005484C
:1055C000026807990A9800FB012080B2019009E067
:1055D000F0000020F800002004010020F40000206A
:1055E000000100200146029A0098FCF7C2FCF7482F
:1055F00000880799C1F10701484300F23F10F449C0
:105600000B68089A0A9901FB0231401A80B2009097
:10561000F048008880B20290EF48026807990A9823
:1056200000FB012080B201900146029A0098FCF72D
:10563000A0FCE64800880799C1F10701484300F241
:105640003D10E3490B68089A0A9901FB0231401AA0
:1056500080B20090DF48008880B20290DE48026885
:1056600007990A9800FB0120801C80B20190014636
:10567000029A0098FCF77DFCD44800880799C1F194
:105680000701484300F59F70D1490B68089A0A99B1
:1056900001FB0231401A80B20090CE48008880B2EF
:1056A0000290CD48026807990A9800FB0120801CEF
:1056B00080B201900146029A0098FCF75AFC08E477
:1056C000C64800680528FAD1C04800880799C1F18A
:1056D0000701484300F23D10BD490B68089A0A993A
:1056E00001FB0231401A80B20090BA48008880B2B3
:1056F0000290B948026807990A9800FB012080B21D
:1057000001900146029A0098FCF733FCAF480088EC
:105710000799C1F10701484300F23D10AC490B68FD
:10572000089A0A9901FB0231401A80B20090A948F8
:10573000008880B20290A848026807990A9800FB86
:105740000120401C80B201900146029A0098FCF7AB
:1057500010FC9E4800880799C1F10701484300F5F5
:105760009F709B490B68089A0A9901FB0231401A05
:1057700080B200909748008880B2029096480268F4
:1057800007990A9800FB012080B201900146029A15
:105790000098FCF7EEFB8D4800880799C1F10701DE
:1057A000484300F59F708A490B68089A0A9901FBE3
:1057B0000231401A80B200908648008880B2029080
:1057C0008548026807990A9800FB0120401C80B2B6
:1057D00001900146029A0098FCF7CBFB95E48048C3
:1057E00000780028FAD07D480068D0BB00200690E1
:1057F00032E00020059028E0744800880799C1F144
:105800000701484300F23D100699421870480368AA
:1058100008990A9800FB0130101A80B20090714874
:10582000008880B202906C48026807990A9800FBD1
:1058300001210598084480B201900146029A00981F
:10584000FCF797FB0598401C05900A99059888423B
:10585000D2DB0698401C06900A9906988842C8DB5D
:1058600053E4FFE75D48006801287DD15748008870
:105870000799C1F10701484300F23D1054490B68F4
:10588000089A0A9901FB0231401A80B200905148EF
:10589000008880B202905048026807990A9800FB7D
:1058A000012080B201900146029A0098FCF761FB4A
:1058B000464800880799C1F10701484300F23D10AE
:1058C00043490B68089A0A9901FB0231401A80B2D9
:1058D00000904448008880B202903F4802680799CF
:1058E0000A9800FB0120401E80B201900146029AF6
:1058F0000098FCF73EFB354800880799C1F1070185
:10590000484300F23D1032490B68089A0A9901FB9E
:105910000231401A80B200903248008880B2029072
:105920002D48026807990A9800FB0120401C80B2AC
:1059300001900146029A0098FCF71BFB234800885F
:105940000799C1F10701484300F59E7020490B6893
:10595000089A0A9901FB0231401A80B2009021484E
:10596000008880B2029000E03EE01B480268079980
:105970000A9800FB012080B201900146029A00982B
:10598000FCF7F7FA114800880799C1F1070148436D
:1059900000F59F700E490B68089A0A9901FB0231C5
:1059A000401A80B200900F48008880B202900A48E6
:1059B000026807990A9800FB012080B20190014615
:1059C000029A0098FCF7D5FAC5E400000401002013
:1059D000F4000020F0000020F8000020000100206A
:1059E000FC0000200C010020FE48006802287DD148
:1059F000FD4800880799C1F10701484300F23D10B6
:105A0000FA490B68089A0A9901FB0231401A80B2E0
:105A10000090F748008880B20290F6480268079923
:105A20000A9800FB012080B201900146029A00987A
:105A3000FCF79FFAEC4800880799C1F10701484339
:105A400000F23D10E9490B68089A0A9901FB0231FE
:105A5000401A80B20090E648008880B20290E54883
:105A6000026807990A9800FB0120401E80B201904D
:105A70000146029A0098FCF77CFADB4800880799F7
:105A8000C1F10701484300F23D10D8490B68089A5C
:105A90000A9901FB0231401A80B20090D448008874
:105AA00080B20290D348026807990A9800FB01204F
:105AB000401C80B201900146029A0098FCF759FA06
:105AC000C94800880799C1F10701484300F59E7055
:105AD000C6490B68089A0A9901FB0231401A80B244
